:100000000C945D000C947A000C947A000C947A00A5
:100010000C947A000C947A000C947A000C947A0078
:100020000C947A000C947A000C947A000C947A0068
:100030000C94370A0C947A000C947A000C947A0091
:100040000C947A000C947A000C947A000C947A0048
:100050000C947A000C947A000C947A000C947A0038
:100060000C947A000C947A000C947A000C947A0028
:100070000C947A000C947A000C947A000C947A0018
:100080000C947A000C947A000C947A000C947A0008
:100090000C947A0055033F03410343034503470390
:1000A00049034B034D034F035103A304C104DF0471
:1000B000FE040F0520053F055D0511241FBECFEF8F
:1000C000D8E0DEBFCDBF11E0A0E0B1E0E2E0F3E2B6
:1000D00002C005900D92A23AB107D9F728E0A2EA32
:1000E000B1E001C01D92A734B207E1F70E94890870
:1000F0000C947F110C940000CF93DF93EC010E94CD
:100100005C0E8091A2019091A301892B31F487EAC2
:1001100091E09093A3018093A2012091A4013091DA
:10012000A501CE01820F931F8B3D45E0940770F42B
:100130002817390770F4C091A201D091A301C20F12
:10014000D31F9093A5018093A40105C0C0E0D0E027
:1001500002C0C0E0D0E00E94270FCE01DF91CF9116
:1001600008950895FC010396928381832FEF3FEF5A
:1001700034832383968385839087878310820895B1
:10018000FC01118610860895CF93DF939C01FB013B
:10019000DC011196CD91DC911297D383C2838C81BF
:1001A0009D81958384838C819D81DC0113967C9352
:1001B0006E9312977D836C8331872087F90180814C
:1001C0008F5F8083DF91CF910895CF93DF93EB0111
:1001D000488159814F3F2FEF520721F4FC01A7813D
:1001E000B0850DC0DC01139601C0DF011296ED91C0
:1001F000FC9113972081318142175307B0F7129673
:10020000ED91FC911397FB83EA83D583C483BD836F
:10021000AC831396DC93CE93129799878887FC0161
:1002200020812F5F2083DF91CF910895CF93DF93BB
:10023000FC01A085B185C281D381848195819D8394
:100240008C83C481D581828193819B838A8311961B
:10025000CD91DC911297CE17DF0731F48C819D810F
:1002600012969C938E931197118610868C918150D3
:100270008C93DF91CF910895149A8AE08A95F1F7D3
:1002800000C014988AE08A95F1F700C00895089894
:1002900009980A980B981698159A149A2AE02A95A4
:1002A000F1F700C0009B0AC080ED97E025E02A9599
:1002B000F1F70000009B02C00197C1F714988AE093
:1002C0008A95F1F700C00E943C011598089A099A96
:1002D0000A9A0B9A0895CF93DF93D82FC62F1698BA
:1002E000159810981198129A13980E943C01DD23DA
:1002F00011F0109A01C01098CC2311F0119A01C08E
:100300001198129813980E943C010E944701DF91B6
:10031000CF9108951F93CF93DF93182FD62FC42F1B
:100320001698159810981198129813980E943C01ED
:10033000109A112311F0119A01C01198DD2311F0C8
:10034000129A01C01298CC2311F0139A01C013988D
:100350000E943C010E944701DF91CF911F910895B7
:10036000CF93DF93D82FC62F169815981098119811
:10037000129813980E943C011098119ADD2311F0F5
:10038000129A01C01298CC2311F0139A01C013984D
:100390000E943C010E944701DF91CF910895169879
:1003A000159810981198129813980E943C01109873
:1003B00011981298139A0E943C010E9447010895D7
:1003C000CF93C82F16981598109A86FF02C0119ADD
:1003D00001C01198C5FF02C0129A01C01298C4FF53
:1003E00002C0139A01C013980E943C01C3FF02C0CF
:1003F000109A01C01098C2FF02C0119A01C0119852
:10040000C1FF02C0129A01C01298C0FF02C0139A25
:1004100001C013980E943C010E944701CF910895AA
:10042000623031F0633031F0613031F490E405C076
:1004300094E103C094E501C090E0890F0E94E001BF
:1004400008952F923F924F925F926F927F928F9278
:100450009F92AF92BF92CF92DF92EF92FF920F9353
:100460001F93CF93DF93CDB7DEB72A970FB6F894DB
:10047000DEBF0FBECDBF3C0188E0ECE0F1E0DE0165
:10048000119601900D928A95E1F760E081E00E945B
:100490006B0140E061E081E00E948A01F30180810C
:1004A000882309F45DC06301412CCE0101965C01F3
:1004B0008987BA8633243394212C88248394912C01
:1004C000169A159809851A85532C0F2EF7E0EF2EF2
:1004D000F02DF22C06C091E0E91AF10853940F5F59
:1004E0001F4FF601808190E00E2C02C095958795F4
:1004F0000A94E2F780FF0CC022B1C401F801008029
:1005000002C0880F991F0A94E2F7822B82B90DC0AE
:1005100092B19401F801008002C0220F331F0A94A7
:10052000E2F7822F8095892382B9802F8A19833040
:1005300019F40E943C01CFCFF7E0F51560F60E9458
:100540003C010E94470140E060E0832D0E948A0147
:1005500043946301C40CD11CF60180818111B0CF9A
:100560002A960FB6F894DEBF0FBECDBFDF91CF91B4
:100570001F910F91FF90EF90DF90CF90BF90AF90C1
:100580009F908F907F906F905F904F903F902F90B3
:100590000895CF93DF93EC01862F642F0E94100201
:1005A000CE010E942102DF91CF910895CF93DF9376
:1005B00000D000D000D0CDB7DEB74AE0BE016F5FFB
:1005C0007F4F0E944A11CE0101960E94210284E1D0
:1005D00091E00E94210226960FB6F894DEBF0FBE6E
:1005E000CDBFDF91CF910895CF93DF93EC01862F9C
:1005F000642F0E941002CE010E94D602DF91CF919B
:1006000008952FEF80E792E0215080409040E1F77D
:1006100000C00000089A099A0A9A0B9A0C9A0E9A3E
:100620000D9A60E081E00E946B0140E061E081E0B2
:100630000E948A010E94CF0160E081E00E94B00127
:1006400040E060E085E191E00E94C90208958EBD1E
:100650000DB407FEFDCF0895759A85E08A95F1F7F0
:100660000000759885E08A95F1F7000008958B30B9
:100670009105C8F4FC01E65BFF4F0C942C1183EF4D
:10068000089589E4089581E6089583E3089585E255
:10069000089585E0089581EF089581E0089581E24D
:1006A00008958FE7089580E0089581E80895809186
:1006B0000D0890E00E94370380932A089091290842
:1006C00089E2989F812D112482958F70809308086C
:1006D0008DEC989F812D11248695869586958B307B
:1006E00018F48093090804C026EF280F2093090806
:1006F000880F282F220F220F820F981B90931B0820
:1007000040913608509137089A01369527953695CD
:100710002795ABE7B4E10E943211969587958093B7
:1007200032089A01ADECBCEC0E9432119695879587
:1007300096958795969587958B3018F480930A083F
:1007400003C08A5080930A089A01ADECBCEC0E9469
:1007500032119695879596958795969587959C01E4
:10076000220F331F880F991F880F991F880F991F19
:10077000820F931F481B590B40930E080895AF92A8
:10078000CF92EF92FF920F931F93CF93DF93D82FC7
:10079000C62FF42E122F72980E9427038E2D0E94CE
:1007A00027038C2F0E9427038F2D0E9427030E946E
:1007B0002C03179A8FE396E00197F1F700C0000031
:1007C00017988D2F0E9427038E2D0E9427038C2FB0
:1007D0000E9427038F2D0E9427030E942C03A09ABA
:1007E0008FE396E00197F1F700C00000A0988D2FED
:1007F0000E9427038C2D0E9427038C2F0E94270321
:10080000812F0E9427030E942C03A29A8FE396E077
:100810000197F1F700C00000A2988D2F0E942703D6
:100820008C2D0E9427038C2F0E942703812F0E946A
:1008300027030E942C03A49A8FE396E00197F1F717
:1008400000C00000A4988D2F0E9427038A2D0E94CB
:1008500027038C2F0E942703802F0E9427030E94CA
:100860002C03A19A8FE396E00197F1F700C00000F6
:10087000A1988D2F0E9427038A2D0E9427038C2F79
:100880000E942703802F0E9427030E942C03A39A13
:100890008FE396E00197F1F700C00000A398DF9185
:1008A000CF911F910F91FF90EF90CF90AF9008954F
:1008B000CF93DF9300D0CDB7DEB70E94620E9A834C
:1008C00089836091320870E060507F4F40910A0840
:1008D00050E040505F4F20910E0830E020503F4FD5
:1008E0008091080890E080509F4FA0910908B0E0E7
:1008F000A050BF4FE0911B08F0E08F0100501F4F48
:100900004801FB01A080FA01C080F901E080FC01F0
:1009100000812C91F401408160912A0880E00E94BE
:10092000BF036AE070E0CE0101960E94A60FC9CF16
:1009300090E0FC013197E830F10508F0DBC0EB5A9C
:10094000FF4F0C942C110E94CF0140E060E086E143
:1009500091E00E94C90240E06AE080912B089091EA
:100960002C080E94F40241E060E08FE191E00E94D7
:10097000C9028091290841E06AE090E00E94F402F7
:1009800008950E94CF0140E060E087E291E00E947C
:10099000C90240E06AE080914008909141080E94BD
:1009A000F40241E060E08FE291E00E94C902809190
:1009B000250841E06AE090E00E94F40208950E9458
:1009C000CF0140E060E087E391E00E94C90240E08F
:1009D0006AE080912608909127080E94F40241E085
:1009E00060E080E491E00E94C90241E06AE0809109
:1009F0002F08909130080E94F40208950E94CF01C0
:100A000040E060E089E491E00E94C90241E060E0DA
:100A100080918407909185070E94F40208950E94B6
:100A2000CF0140E060E083E591E00E94C90241E02F
:100A300060E080910A0190910B010E94F4020895F8
:100A40000E94CF0140E060E08DE591E00E94C90284
:100A500040E06AE080911708909118080E94F40223
:100A600041E060E083E691E00E94C90241E06AE073
:100A700080914408909145080E94F40208950E94D4
:100A8000CF0140E060E08BE691E00E94C90240E0C7
:100A90006AE08091190890911A080E94F40241E0DE
:100AA00060E083E791E00E94C9028091100841E074
:100AB0006AE090E00E94F40208950E94CF0140E0B5
:100AC00060E089E191E00E94C90240E06AE0809123
:100AD0003608909137080E94F40241E060E08AE70E
:100AE00091E00E94C90280910D0841E06AE090E027
:100AF0000E94F402089586B18295807F80930B084E
:100B0000803F19F481E00E94980480910B08803D99
:100B100019F482E00E94980480910B08803719F440
:100B200083E00E94980480910B08803519F484E0DA
:100B30000E94980480910B08803B19F485E00E9484
:100B4000980480910B08803919F486E00E9498047B
:100B500080910B08803319F487E00E9498048091FB
:100B60000B08803119F488E00E94980480910B08EA
:100B7000803E19F489E00E94980480910B08803C23
:100B800019F48AE00E94980480910B08803619F4C9
:100B900083E00E94980480910B08803419F484E06B
:100BA0000E94980480910B08803A19F485E00E9415
:100BB000980480910B08803819F486E00E9498040C
:100BC00080910B08803219F487E00E94980480918C
:100BD0000B08811103C088E00E9498040895809159
:100BE0008207909183070097F1F320E04FEF5FEFCA
:100BF00060E070E00E94F70B813089F70E947B056E
:100C0000EECF0F931F93CF93DF93CDB7DEB7289727
:100C10000FB6F894DEBF0FBECDBF88E98093EF001A
:100C200088E08093ED008E010F5F1F4FF80180E098
:100C30002DEE30E04AEF50E0982F97709860D90180
:100C40009C93DA019C9191938F5F8830A9F78981F9
:100C5000809339082A81209346089B819093160837
:100C60009C81909335089D8190933F089E8190933D
:100C700007089F819093250898859093290890E014
:100C8000982F8827820F911D90932C0880932B0812
:100C900020913A0830913B088217930799F020E0A1
:100CA00040E050E060E070E080918207909183071F
:100CB0000E94560B80912B0890912C0890933B0832
:100CC00080933A088091160890E0982F8827209109
:100CD0003508820F911D90934108809340088091C0
:100CE0003F0890E0982F882720910708820F911DD8
:100CF0009093300880932F081092EE0088E980933B
:100D0000EF00EAEDF0E08081808388E18093ED00E0
:100D1000F80180E02DEE30E04AEF50E0982F977018
:100D20009861D9019C93DA019C9191938F5F8830EF
:100D3000A9F72B81209333088C81809331089D8102
:100D4000909314083E8130932808482F50E030E0FB
:100D5000322F2227240F351F309345082093440853
:100D6000892F90E0982F8827840F951F90931A0859
:100D7000809319081092EE0088E98093EF00EAED65
:100D8000F0E08081808388E28093ED00F80180E0CC
:100D90002DEE30E04AEF50E0982F97709862D9011D
:100DA0009C93DA019C9191938F5F8830A9F72981F8
:100DB00020933D089A8190930C088B81809343087F
:100DC0004C8140932E0830E0322F2227290F311D0D
:100DD000309318082093170890E0982F8827840FE5
:100DE000911D90932708809326081092EE0088E9C1
:100DF0008093EF00EAEDF0E08081808388E38093C8
:100E0000ED0080E0ADEEB0E02AEF30E0982F977073
:100E100098639C93F9019081F80191938F018F5F02
:100E20008830A1F78981809310088B8180934208D4
:100E30002C81209315089D8190930D0890E0982FA8
:100E40008827820F911D909337088093360810925F
:100E5000EE0088E98093EF00EAEDF0E08081808386
:100E600028960FB6F894DEBF0FBECDBFDF91CF91AD
:100E70001F910F910895CF93DF9300D0CDB7DEB7C8
:100E80000E94620E9A8389830E9401060E94570382
:100E900062E370E0CE0101960E94A60FF5CF2F927B
:100EA0003F924F925F926F927F928F929F92AF92FA
:100EB000BF92CF92DF92EF92FF920F931F93CF9347
:100EC000DF930F2EFDEECF2ED12CF02D689444240D
:100ED00043F8F60140820F2EF3EFEF2EF12CF02DA8
:100EE0000F2EFFE06F2EF02DF701608202EF10E071
:100EF0000F2EF5E87F2EF02DF801708261EF70E083
:100F0000FB01108240EF50E0FA01108227EF30E041
:100F100099249A94F901908286EF90E0FC019082E6
:100F2000C5EFD0E09882A4EFB0E09C920F2EFFEEC8
:100F30002F2E312CF02D0F2EF8E98F2EF02DF101F0
:100F400080820F2EF8E15F2EF02DF60150820F2ED9
:100F5000FEEEAF2EB12CF02DF5011082F70160826C
:100F6000F8017082FB011082FA014082F90190823F
:100F7000FC01908298829C92F10180820F2EF8E20F
:100F80004F2EF02DF6014082F5011082F7016082AC
:100F9000F8017082FB0110826894442444F8FA013D
:100FA0004082F9019082FC01908298829C92F1012A
:100FB00080820F2EF8E34F2EF02DF6014082F501CE
:100FC0001082F7016082F8017082FB011082FA0141
:100FD0005082F9019082FC01908298829C92F101EA
:100FE0008082DF91CF911F910F91FF90EF90DF9062
:100FF000CF90BF90AF909F908F907F906F905F90B9
:101000004F903F902F9008952F923F925F926F9252
:101010007F928F929F92AF92BF92CF92DF92EF9288
:10102000FF920F931F93CF93DF93712C0F2EFDEE42
:10103000CF2ED12CF02D0F2EFEEEEF2EF12CF02D19
:1010400003EF10E062EF70E041EF50E020EF30E09E
:10105000C7EFD0E00F2EF6EF2F2E312CF02D0F2EF4
:10106000F5EFAF2EB12CF02D0F2EF4EF8F2E912C2B
:10107000F02D6894552453F8612CEAEFF0E0872DA9
:101080008295807FD6018C93D7011C92D8011C9247
:10109000DB011C92DA011C92D9011C921882D10149
:1010A0001C92D5011C92D4011C92852D962D108284
:1010B0000197E9F77394BFE07B12E1CF82E0809360
:1010C000D80083E08093DC001092DE001092DF00F5
:1010D0001092DB0086E08093E20084E08093E300DE
:1010E00082E18093E4001092E5000E944F07DF91B7
:1010F000CF911F910F91FF90EF90DF90CF90BF9015
:10110000AF909F908F907F906F905F903F902F90C7
:101110000895EF92FF920F938FEF81B984B917B8BA
:101120008DB983BB88B98DB18C7F8DB9739A509876
:1011300051988AB18C7F8AB9559A56987598729A47
:10114000749A82E58CBD1DBC0E9401030E940408B4
:1011500043E060E081E00E94290B90938307809335
:101160008207E12CF12C01E020E030E045E550E081
:101170006BE871E08FEE95E00E94230D02E020E025
:1011800030E045E550E061E971E088E594E00E94D7
:10119000230D03E020E030E045E550E067E971E031
:1011A0008BE397E00E94230D0E94320E80E090E0D6
:1011B0000F91FF90EF90089531E1FC01308331975A
:1011C00022E220833197A3E3A08331976083319794
:1011D000708331971082319760E860833197108275
:1011E000319762E06083319763E06083319764E018
:1011F0006083319765E06083319766E06083319763
:1012000067E06083319768E06083319769E06083CD
:10121000319760E1608331973083319732E13083D9
:10122000319733E13083319734E13083319735E1C1
:101230003083319736E13083319737E1308331970E
:1012400038E13083319739E13083319730E23083B0
:10125000319731E2308331972083319723E2208325
:101260003197408331975083319726E2208331971D
:1012700027E22083319728E22083319729E22083D7
:10128000319720E32083319721E3208386970895C7
:101290001092890089EF809388008BE08093810011
:1012A000EFE6F0E0808182E08083A0910508B091B4
:1012B0000608CD91CDBFDD91DEBFFF91EF91DF91AB
:1012C000CF91BF91AF919F918F917F916F915F91DE
:1012D0004F913F912F911F910F91FF90EF90DF90D1
:1012E000CF90BF90AF909F908F907F906F905F90C6
:1012F0004F903F902F901F900F900FBE0F9008952A
:1013000081E008950F920FB6F8940F921F92112466
:101310002F923F924F925F926F927F928F929F9205
:10132000AF92BF92CF92DF92EF92FF920F931F93F3
:101330002F933F934F935F936F937F938F939F93DD
:10134000AF93BF93CF93DF93EF93FF93A0910508E3
:10135000B09106080DB60D920EB60D920E942310A4
:10136000A0910508B0910608CD91CDBFDD91DEBFFB
:10137000FF91EF91DF91CF91BF91AF919F918F91AD
:101380007F916F915F914F913F912F911F910F919D
:10139000FF90EF90DF90CF90BF90AF909F908F9095
:1013A0007F906F905F904F903F902F901F900F9085
:1013B0000FBE0F9008950F920FB6F8940F921F92E0
:1013C00011242F923F924F925F926F927F928F9251
:1013D0009F92AF92BF92CF92DF92EF92FF920F93C4
:1013E0001F932F933F934F935F936F937F938F93AD
:1013F0009F93AF93BF93CF93DF93EF93FF93A0910E
:101400000508B09106080DB60D920EB60D920E9419
:101410006C0E81110E942310A0910508B09106085E
:10142000CD91CDBFDD91DEBFFF91EF91DF91CF91E7
:10143000BF91AF919F918F917F916F915F914F91EC
:101440003F912F911F910F91FF90EF90DF90CF90E0
:10145000BF90AF909F908F907F906F905F904F90D4
:101460003F902F901F900F900FBE0F9008950E94F5
:10147000DB0918950F931F93CF93DF93EC01042F93
:101480001A8D8C8D8823C9F1411117C0482F50E067
:101490008C819D810E9441112C8D8C819D81820FB8
:1014A000911D9D838C832A813B818217930728F1AC
:1014B000888199819D838C8320C0482F50E08E8144
:1014C0009F810E9441118C8D90E0919581959109A9
:1014D0002E813F81280F391F3F832E8348815981F8
:1014E0002417350730F42A813B81820F931F9F8395
:1014F0008E83023011F4111111501F5F1A8F80E09A
:10150000DF91CF911F910F910895FC01448D4423E9
:10151000A9F050E026813781240F351F37832683B9
:10152000828193812817390720F0808191819783E8
:101530008683CB01668177810E9441110895EF92E5
:10154000FF920F931F93CF938C010FB6F8940F92D5
:10155000FC01C68D1C16ACF48189811106C011C036
:10156000F8019189911105C00CC07801F1E1EF0EED
:10157000F11CC7010E949C1081110E942811C150CA
:1015800079F78FEFF801868F0F900FBE0FB6F894A2
:101590000F92C58D1C16ACF48085811106C011C058
:1015A000F8019085911105C00CC07801F8E0EF0EAC
:1015B000F11CC7010E949C1081110E942811C1508A
:1015C00079F78FEFF801858F0F900FBECF911F91A4
:1015D0000F91FF90EF900895CF93DF93EC010FB63A
:1015E000F8940F92488159812C8D30E07B8D729F49
:1015F000C001739F900D1124FA01E80FF91FFB83BE
:10160000EA831A8E5D834C83821B930B840F951F94
:101610009F838E838FEF8D8F8E8F61110CC0888595
:10162000882389F0CE0108960E949C10882359F0E7
:101630000E94820908C0CE0108960E94B200CE0125
:1016400041960E94B2000F900FBE81E0DF91CF91D2
:1016500008950F931F93CF93DF93082F162F6623C0
:10166000C1F0869FC00111244F960E947C00EC01BE
:10167000009741F415C00B8F1C8F61E0CE010E94D2
:10168000EC0A0EC04F9699838883F5CFD983C8831F
:10169000F2CF8FE190E00E947C00EC01892BB1F742
:1016A000CE01DF91CF911F910F9108959F92AF923C
:1016B000BF92CF92DF92EF92FF920F931F93CF933F
:1016C000DF9300D000D01F92CDB7DEB78C016B0145
:1016D0005D834C83A22EB12C992493947C0188E0E5
:1016E000E80EF11C0FB6F8940F92F801328D938D2D
:1016F000391718F0F2E0AF1219C04A2DB601C8012F
:101700000E943A0AF8019189992349F0C80141964B
:101710000E949C10882331F00E94820903C081112D
:101720000E9482090F900FBE81E050C0EC81FD81C4
:10173000EF2B21F40F900FBE80E048C0B11005C020
:10174000CE0101960E94E410B92C0F900FBE0E94AA
:101750005C0E0FB6F8940F92F801858D8F3F09F457
:10176000158EF801868D8F3F09F4168E0F900FBEEF
:10177000BE016C5F7F4FCE0101960E94EF10811178
:101780001FC00FB6F8940F92F801928D0F900FBE04
:10179000838D98130FC06C817D81C7010E948910D1
:1017A000C8010E949F0A0E94270F81119BCF0E94AF
:1017B000820998CFC8010E949F0A0E94270F92CFEA
:1017C000C8010E949F0A0E94270F80E00F900F908F
:1017D0000F900F900F90DF91CF911F910F91FF907D
:1017E000EF90DF90CF90BF90AF909F9008958F9231
:1017F0009F92AF92BF92CF92DF92EF92FF920F93A0
:101800001F93CF93DF9300D000D01F92CDB7DEB7E8
:101810008C015B015D834C83822EE12C992493948F
:101820006C0181E1C80ED11C0FB6F8940F92F8013B
:10183000F28CFF2041F1C680D780B501C8010E941B
:10184000850A81100FC0FA94F801F28E80858823F2
:10185000B1F0C80108960E949C10882381F00E9474
:1018600082090DC0F801D782C6828189882339F0A8
:10187000C80141960E949C1081110E9482090F901C
:101880000FBE81E057C04C815D81452B21F40F9044
:101890000FBE80E04FC0E11005C0CE0101960E944E
:1018A000E410E92C0F900FBE0E945C0E0FB6F89466
:1018B0000F92F801858D8F3F09F4158EF801968DF2
:1018C0009F3F09F4168E0F900FBEBE016C5F7F4FD5
:1018D000CE0101960E94EF1081111EC00FB6F89440
:1018E0000F92F801828D0F900FBE81110FC06C8195
:1018F0007D81C6010E948910C8010E949F0A0E9432
:10190000270F811191CF0E9482098ECFC8010E94BA
:101910009F0A0E94270F88CFC8010E949F0A0E9439
:10192000270F0FB6F8940F92F801828D0F900FBE1B
:1019300081117ACF0F900F900F900F900F90DF9141
:10194000CF911F910F91FF90EF90DF90CF90BF90BC
:10195000AF909F908F900895E091B207F091B307F8
:101960008081811107C08FEF9FEF90938A0780934A
:1019700089070895E091B207F091B3070580F681D9
:10198000E02D0680F781E02D8281938190938A0774
:10199000809389070895FF920F931F93CF93DF934E
:1019A000EC01F62E009191071091920780910508A5
:1019B0009091060802960E941601CF3F8FEFD8073C
:1019C00069F4FF2059F060910508709106086E5F78
:1019D0007F4F84E997E00E94C4002FC0C00FD11F41
:1019E000E0910508F0910608D383C283C017D107A0
:1019F00068F460910508709106088091B007909195
:101A0000B1076E5F7F4F0E94E50017C06091050827
:101A1000709106088091B2079091B3076E5F7F4F77
:101A20000E94E5008091890790918A07C817D9071D
:101A300020F4D0938A07C0938907DF91CF911F913B
:101A40000F91FF9008954F925F926F927F928F92C5
:101A50009F92AF92BF92CF92DF92EF92FF920F933D
:101A60001F93CF93DF934C016B015A012901CA01E7
:101A70000E947C003C01892B09F4E2C086E290E0E0
:101A80000E947C00EC01892B71F0788E6F8A81E0D6
:101A9000A81AB1086A0C7B1CD6018C91898F8C9195
:101AA000811105C018C0C3010E94B100C9C0AE01B8
:101AB000465E5F4FF6013196B8E0CB0ED11CCF01E8
:101AC0002191DA012D93AD01DC018C91882319F06D
:101AD000EC15FD05A1F718A2073008F006E00E8B03
:101AE0006E01B2E0CB0ED11CC6010E94C000CE0137
:101AF0000C960E94C000D987C88787E090E0801BC1
:101B000091099D878C87DB8BCA8B19A21AA21BA215
:101B10001CA21DA2A201B401C3010E94DC0899838A
:101B20008883E114F10419F0F701D183C0830FB663
:101B3000F8940F92809193078F5F80939307809121
:101B4000050890910608892BD1F5D0930608C0931B
:101B5000050880919307813009F041C006EC17E039
:101B60000F2EF5E0EF2EF8E0FF2EF02DC8010E94B9
:101B7000B200075F1F4F0E151F05C1F78DEB97E0F1
:101B80000E94B20084EB97E00E94B20087EA97E0DF
:101B90000E94B2008EE997E00E94B20084E997E0CB
:101BA0000E94B2008DEB97E09093B3078093B20749
:101BB00084EB97E09093B1078093B00710C08091B9
:101BC0008F0781110CC0E0910508F09106089689F5
:101BD0008E89891720F0D0930608C093050880915C
:101BE0008B078F5F80938B078E8990919007981752
:101BF00010F48093900790E09C01220F331F220F76
:101C0000331F220F331F820F931FB6018A53984F41
:101C10000E94C4000F900FBE80918F07882361F04F
:101C2000E0910508F091060896898E89981730F49E
:101C30000E94820981E005C081E003C081E001C00B
:101C40008FEFDF91CF911F910F91FF90EF90DF9079
:101C5000CF90BF90AF909F908F907F906F905F904C
:101C60004F900895EF92FF920F930F2EF7E8EF2E0B
:101C7000F7E0FF2EF02D00E020E030E045E550E0F9
:101C80006DE971E086EE9FE00E94230D813081F4C2
:101C9000F8948FEF9FEF90938A078093890781E0F4
:101CA00080938F0710929207109291070E94480923
:101CB0000F91FF90EF900895809186078F5F80933A
:101CC000860708950FB6F8940F928091910790912E
:101CD00092070F900FBE0895CF92DF92EF92FF927E
:101CE0000F931F93CF93DF9380918607811199C043
:101CF000E0909107F09092078FEFE81AF80AF092BF
:101D00009207E0929107E114F104B9F48091B207CF
:101D10009091B3072091B0073091B1073093B3078A
:101D20002093B2079093B1078093B00780918C07FE
:101D30008F5F80938C070E94AC0C809189079091F3
:101D40008A07E816F90610F4D12C53C0D12CCC2404
:101D5000C394E091B207F091B3079081911107C04D
:101D60008FEF9FEF90938A078093890742C0E0919D
:101D7000B207F091B3070580F681E02DC681D781C7
:101D80002A813B81E216F30628F430938A072093D8
:101D900089072FC08E010E5F1F4FC8010E941601D8
:101DA0008C899D89892B21F0CE010C960E94160109
:101DB0002E8980919007821710F42093900730E0CD
:101DC000C901880F991F880F991F880F991F820FCB
:101DD000931FB8018A53984F0E94C400E0910508F0
:101DE000F09106089E898689981708F4B2CFDC2CFA
:101DF000B0CFE0910508F0910608868990E0FC01DB
:101E0000EE0FFF1FEE0FFF1FEE0FFF1F8E0F9F1F26
:101E1000FC01EA53F84F8081823048F0DD24D394EE
:101E200006C080918E078F5F80938E07D12C8091A2
:101E30008D07882311F0DD24D3948D2DDF91CF9170
:101E40001F910F91FF90EF90DF90CF900895DF9258
:101E5000EF92FF920F931F93CF93DF930FB6F894F7
:101E60000F92809186078150809386078091860724
:101E700081115FC080919307811133C05DC0D7018C
:101E80001596ED91FC911697C681D781CE010C96DF
:101E90000E9416018E010E5F1F4FC8010E9416019D
:101EA0002E8980919007821710F42093900730E0DC
:101EB000C901880F991F880F991F880F991F820FDA
:101EC000931FB8018A53984F0E94C400E0910508FF
:101ED000F09106089E898689981768F0D0928D0740
:101EE0000AC0C0E0D0E00F2EF7EAEF2EF7E0FF2E99
:101EF000F02DDD24D394F70180818111C0CFCD2B4B
:101F000011F00E94AC0CC0918E07CC2351F0D1E0AF
:101F10000E946C0E8111D0938D07C150C9F71092A9
:101F20008E0780918D07882331F00E94820981E01D
:101F300003C080E001C080E00F900FBEDF91CF9121
:101F40001F910F91FF90EF90DF9008950F931F93D3
:101F5000CF93DF938C01EB010E945C0E809191077F
:101F600090919207F801408151819A012C0F3D1FF9
:101F70008417950748F424173507F8F43183208334
:101F80008217930778F407C02417350790F082175B
:101F9000930778F012C060E0A901481B590BCA01F1
:101FA0000E94CB0C0E94270F81110BC00E94820956
:101FB00008C0F80131832083EECFF80131832083FC
:101FC000F1CFDF91CF911F910F9108950EE917E0A6
:101FD0000F2EF6ECEF2EF7E0FF2EF02D29C00E9419
:101FE0005C0ED801CC910E94270FCC2309F10FB6CB
:101FF000F8940F92D8011596ED91FC911697C68131
:10200000D781CE0102960E941601809193078150DC
:102010008093930780919D07815080939D070F9037
:102020000FBE8F89988D0E94B100CE010E94B10031
:1020300080919D078111D3CFF70180818230C0F359
:102040000E948209F5CF80918607882321F081E0E4
:1020500080938D07089510928D0720919007822F0D
:1020600090E0FC01EE0FFF1FEE0FFF1FEE0FFF1FB2
:10207000E80FF91FEA53F84F3081311111C0215098
:10208000822F90E0FC01EE0FFF1FEE0FFF1FEE0FFF
:10209000FF1FE80FF91FEA53F84F3081332379F31C
:1020A000AC01440F551F440F551F440F551F480FD7
:1020B000591FDA01AA53B84F1196ED91FC9112976E
:1020C0000280F381E02D1296FC93EE931197475313
:1020D000584FE417F50729F442815381FD015283DB
:1020E0004183FC01EE0FFF1FEE0FFF1FEE0FFF1FDE
:1020F0008E0F9F1FFC01EA53F84F0180F281E02D03
:102100008681978190930608809305082093900715
:102110000895CF93DF93EB012091050830910608D5
:10212000B901645F7F4F0E94E50061E0CE010E942B
:10213000CB0CDF91CF9108950F931F93CF93DF9333
:10214000DC011596ED91FC911697C681D7818E0121
:10215000045F1F4FC8010E941601809186078111FC
:102160001CC00A501109C8010E9416012E898091D5
:102170009007821710F42093900730E0C901880F70
:10218000991F880F991F880F991F820F931FB801FD
:102190008A53984F0E94C40005C0B80187EA97E0AF
:1021A0000E94C400E0910508F09106089E89868986
:1021B000891720F481E080938D0701C080E0DF91D2
:1021C000CF911F910F91089520918C07FC012083DE
:1021D00020919107309192073283218308950FB6A1
:1021E000F8940F924091910750919207DB012D9145
:1021F0003C912F3FBFEF3B0719F1E0918C07DC01C9
:10220000FC91FE1739F01196ED91FC9112974E1743
:102210005F07C0F4DC011196ED91FC911297DA0191
:10222000AE1BBF0BA217B30778F4DB01E41BF50B61
:102230002E0F3F1F2D933C930E94E41080E005C0B9
:1022400080E003C081E001C081E00F900FBE0895DF
:1022500081E080938D070895EE0FFF1F0590F491A4
:10226000E02D0994A29FB001B39FC001A39F700D00
:10227000811D1124911DB29F700D811D1124911D8E
:102280000895FB01DC0102C001900D9241505040C5
:10229000D8F70895BB274A3031F4992322F4BDE2E0
:1022A000909581959F4F0C945611BB27FB015527A4
:1022B000AA27880F991FAA1FA41710F0A41B8395A3
:1022C0005051B9F7A05DAA3308F0A95DA19300971A
:1022D00079F7B111B1931192CB010C946F11DC011C
:1022E000FC01672F71917723E1F7329704C07C914D
:1022F0006D9370836291AE17BF07C8F30895F89489
:02230000FFCF0D
:10230200C0F9A4B0999282F88090570000010203AC
:10231200000102032000456E675370656564004545
:102322006E6754656D7000456E674C6F6164004165
:10233200697254656D70004F696C507265737300F9
:102342005468726F74746C65004175746F73686958
:1023520066740046616E2053746172740056426165
:10236200747400496E6A44757479004D61705365E6
:102372006E73004C616D6264610067656172007525
:102382007000444E004E45007261007461736B34FC
:10239200007461736B31007461736B330049444C98
:0223A2004500F4
:00000001FF
