S0120000415439305F53656D70682E73726563B8
S11300000C944A000C9467000C9467000C946700ED
S11300100C9467000C9467000C9467000C946700C0
S11300200C9467000C9467000C9467000C946700B0
S11300300C9465050C9467000C9467000C9467009D
S11300400C9467000C9467000C9467000C94670090
S11300500C9467000C9467000C9467000C94670080
S11300600C9467000C9467000C9467000C94670070
S11300700C9467000C9467000C9467000C94670060
S11300800C9467000C9467000C9467000C94670050
S11300900C94670011241FBECFEFD8E0DEBFCDBFA4
S11300A011E0A0E0B1E0E6E3F9E102C005900D92B1
S11300B0AE32B107D9F727E0AEE2B1E001C01D923C
S11300C0A637B207E1F70E94B5030C94990C0C947F
S11300D00000CF93DF93EC010E94880980912E01E8
S11300E090912F01892B31F483E391E090932F01B8
S11300F080932E012091300130913101CE01820F85
S1130100931F8B3D45E0940770F42817390770F46A
S1130110C0912E01D0912F01C20FD31F90933101B2
S11301208093300105C0C0E0D0E002C0C0E0D0E060
S11301300E94560ACE01DF91CF9108950895FC01E3
S11301400396928381832FEF3FEF34832383968337
S113015085839087878310820895FC011186108619
S11301600895CF93DF939C01FB01DC011196CD919F
S1130170DC911297D383C2838C819D819583848380
S11301808C819D81DC0113967C936E9312977D8301
S11301906C8331872087F90180818F5F8083DF91B1
S11301A0CF910895CF93DF93EB01488159814F3F5D
S11301B02FEF520721F4FC01A781B0850DC0DC01AB
S11301C0139601C0DF011296ED91FC9113972081E3
S11301D0318142175307B0F71296ED91FC911397B2
S11301E0FB83EA83D583C483BD83AC831396DC93FA
S11301F0CE93129799878887FC0120812F5F2083F3
S1130200DF91CF910895CF93DF93FC01A085B18551
S1130210C281D381848195819D838C83C481D5815E
S1130220828193819B838A831196CD91DC9112976D
S1130230CE17DF0731F48C819D8112969C938E93A7
S11302401197118610868C9181508C93DF91CF91F8
S11302500895CF93DF9300D0CDB7DEB7999A0E946B
S11302608E099A83898312E084B3812784BB6CED61
S113027075E0CE0101960E94D50AF6CFCF93DF93A5
S113028000D0CDB7DEB7989A0E948E099A838983ED
S113029011E084B3812784BB68EE73E0CE0101963C
S11302A00E94D50AF6CF6D98759A08958CB185FB96
S11302B0882780F991E089270895CF93DF9300D0B0
S11302C0CDB7DEB70E948E099A83898320E040E08F
S11302D050E060E070E080910E0790910F070E945B
S11302E025070E9453010E945601813059F420E0F1
S11302F040E050E060E070E080910E0790910F07BD
S11303000E94840664E170E0CE0101960E94D50A41
S1130310EACF439A8AE08A95F1F700C043988AE0CD
S11303208A95F1F700C008953F983E983D983C980F
S11303304298419A439A2AE02A95F1F700C0379BE4
S11303400AC080ED97E025E02A95F1F70000379B7D
S113035002C00197C1F743988AE08A95F1F700C07B
S11303600E94890141983F9A3E9A3D9A3C9A089589
S1130370CF93DF93D82FC62F429841984798469839
S1130380459A44980E948901DD2311F0479A01C0DF
S11303904798CC2311F0469A01C046984598449852
S11303A00E9489010E949401DF91CF9108951F93C7
S11303B0CF93DF93182FD62FC42F42984198479894
S11303C04698459844980E948901479A112311F050
S11303D0469A01C04698DD2311F0459A01C045981C
S11303E0CC2311F0449A01C044980E9489010E94D0
S11303F09401DF91CF911F910895CF93DF93D82F6C
S1130400C62F4298419847984698459844980E9428
S113041089014798469ADD2311F0459A01C0459811
S1130420CC2311F0449A01C044980E9489010E948F
S11304309401DF91CF910895429841984798469846
S1130440459844980E948901479846984598449A4B
S11304500E9489010E9494010895CF93C82F429865
S11304604198479A86FF02C0469A01C04698C5FF44
S113047002C0459A01C04598C4FF02C0449A01C015
S113048044980E948901C3FF02C0479A01C047985B
S1130490C2FF02C0469A01C04698C1FF02C0459AF5
S11304A001C04598C0FF02C0449A01C044980E940C
S11304B089010E949401CF910895623031F0633034
S11304C031F0613031F490E405C094E103C094E567
S11304D001C090E0890F0E942D0208952F923F924F
S11304E04F925F926F927F928F929F92AF92BF9240
S11304F0CF92DF92EF92FF920F931F93CF93DF93EC
S1130500CDB7DEB72A970FB6F894DEBF0FBECDBFC6
S11305103C0188E0E0E0F1E0DE01119601900D92EB
S11305208A95E1F760E081E00E94B80140E061E073
S113053081E00E94D701F3018081882309F45DC022
S11305406301412CCE0101965C018987BA8633246C
S11305503394212C88248394912C429A41980985C0
S11305601A85532C0F2EF7E0EF2EF02DF22C06C037
S113057091E0E91AF10853940F5F1F4FF60180814F
S113058090E00E2C02C0959587950A94E2F780FFBF
S11305900CC028B1C401F801008002C0880F991F63
S11305A00A94E2F7822B88B90DC098B19401F8013E
S11305B0008002C0220F331F0A94E2F7822F809535
S11305C0892388B9802F8A19833019F40E948901FC
S11305D0CFCFF7E0F51560F60E9489010E949401DF
S11305E040E060E0832D0E94D70143946301C40C72
S11305F0D11CF60180818111B0CF2A960FB6F894F0
S1130600DEBF0FBECDBFDF91CF911F910F91FF9041
S1130610EF90DF90CF90BF90AF909F908F907F909E
S11306206F905F904F903F902F900895CF93DF93FA
S1130630EC01862F642F0E945D02CE010E946E029F
S1130640DF91CF910895CF93DF9300D000D000D0F5
S1130650CDB7DEB74AE0BE016F5F7F4F0E94640CE6
S1130660CE0101960E946E0288E091E00E946E0223
S113067026960FB6F894DEBF0FBECDBFDF91CF91A3
S11306800895CF93DF93EC01862F642F0E945D02BF
S1130690CE010E942303DF91CF9108952FEF80E7CD
S11306A092E0215080409040E1F700C000003F9A62
S11306B03E9A3D9A3C9A3B9A3A9A399A60E081E094
S11306C00E94B80140E061E081E00E94D7010E94ED
S11306D01C0260E081E00E94FD0140E060E089E0EE
S11306E091E00E9416030895CF93DF9300D0CDB715
S11306F0DEB70E948E099A8389830E944E0341E0EB
S113070060E08AE091E00E94160340E060E08EE041
S113071091E00E9416030E94980940E065E090E091
S11307200E94410380910E0790910F070097B1F04A
S113073020E040E050E060E070E00E942507813056
S113074039F441E063E081E090E00E94410306C097
S113075041E063E080E090E00E94410364EF71E0D7
S1130760CE0101960E94D50AD6CFEF92FF920F9345
S11307708FEF8DB943E060E081E00E9457069093CB
S11307800F0780930E070097D1F020E040E050E07F
S113079060E070E00E94840680910E0790910F073C
S11307A0892B69F0E12CF12C02E020E030E045E5F2
S11307B050E064E171E08DE591E00E945108E12C84
S11307C0F12C01E020E030E045E550E06BE171E020
S11307D08EE391E00E94510800E020E030E045E51E
S11307E050E06FE171E084E793E00E94510801E07A
S11307F020E030E045E550E063E271E089E291E019
S11308000E9451080E945E0980E090E00F91FF90E1
S1130810EF90089531E1FC013083319722E2208387
S11308203197A3E3A0833197608331977083319725
S11308301082319760E8608331971082319762E0CB
S11308406083319763E06083319764E0608331971C
S113085065E06083319766E06083319767E0608389
S1130860319768E06083319769E06083319760E194
S1130870608331973083319732E13083319733E1AC
S11308803083319734E13083319735E130833197C8
S113089036E13083319737E13083319738E1308363
S11308A0319739E13083319730E23083319731E247
S11308B0308331972083319723E22083319740831B
S11308C031975083319726E22083319727E22083A2
S11308D0319728E22083319729E22083319720E35E
S11308E02083319721E3208386970895109289000D
S11308F089EF809388008BE080938100EFE6F0E03D
S1130900808182E08083A0917407B0917507CD91B6
S1130910CDBFDD91DEBFFF91EF91DF91CF91BF910C
S1130920AF919F918F917F916F915F914F913F9183
S11309302F911F910F91FF90EF90DF90CF90BF9078
S1130940AF909F908F907F906F905F904F903F906B
S11309502F901F900F900FBE0F90089581E008957F
S11309600F920FB6F8940F921F9211242F923F9278
S11309704F925F926F927F928F929F92AF92BF92AB
S1130980CF92DF92EF92FF920F931F932F933F9397
S11309904F935F936F937F938F939F93AF93BF9383
S11309A0CF93DF93EF93FF93A0917407B0917507F2
S11309B00DB60D920EB60D920E94520BA0917407C3
S11309C0B0917507CD91CDBFDD91DEBFFF91EF9161
S11309D0DF91CF91BF91AF919F918F917F916F9153
S11309E05F914F913F912F911F910F91FF90EF9045
S11309F0DF90CF90BF90AF909F908F907F906F903B
S1130A005F904F903F902F901F900F900FBE0F90CC
S1130A1008950F920FB6F8940F921F9211242F92FB
S1130A203F924F925F926F927F928F929F92AF927A
S1130A30BF92CF92DF92EF92FF920F931F932F9367
S1130A403F934F935F936F937F938F939F93AF9352
S1130A50BF93CF93DF93EF93FF93A0917407B0916B
S1130A6075070DB60D920EB60D920E949B09811169
S1130A700E94520BA0917407B0917507CD91CDBF20
S1130A80DD91DEBFFF91EF91DF91CF91BF91AF91E7
S1130A909F918F917F916F915F914F913F912F9192
S1130AA01F910F91FF90EF90DF90CF90BF90AF9088
S1130AB09F908F907F906F905F904F903F902F907A
S1130AC01F900F900FBE0F9008950E94090518956E
S1130AD00F931F93CF93DF93EC01042F1A8D8C8D0A
S1130AE08823C9F1411117C0482F50E08C819D81A2
S1130AF00E945B0C2C8D8C819D81820F911D9D83A6
S1130B008C832A813B818217930728F188819981FC
S1130B109D838C8320C0482F50E08E819F810E944A
S1130B205B0C8C8D90E09195819591092E813F818C
S1130B30280F391F3F832E83488159812417350795
S1130B4030F42A813B81820F931F9F838E8302306E
S1130B5011F4111111501F5F1A8F80E0DF91CF91B2
S1130B601F910F910895FC01448D4423A9F050E096
S1130B7026813781240F351F378326838281938111
S1130B802817390720F08081918197838683CB01D0
S1130B90668177810E945B0C0895EF92FF920F9318
S1130BA01F93CF938C010FB6F8940F92FC01C68D5E
S1130BB01C16ACF48189811106C011C0F801918919
S1130BC0911105C00CC07801F1E1EF0EF11CC701D1
S1130BD00E94CB0B81110E94570CC15079F78FEF03
S1130BE0F801868F0F900FBE0FB6F8940F92C58D43
S1130BF01C16ACF48085811106C011C0F8019085E3
S1130C00911105C00CC07801F8E0EF0EF11CC7018A
S1130C100E94CB0B81110E94570CC15079F78FEFC2
S1130C20F801858F0F900FBECF911F910F91FF9008
S1130C30EF900895CF93DF93EC010FB6F8940F92E1
S1130C40488159812C8D30E07B8D729FC001739F48
S1130C50900D1124FA01E80FF91FFB83EA831A8E21
S1130C605D834C83821B930B840F951F9F838E831C
S1130C708FEF8D8F8E8F61110CC08885882389F04A
S1130C80CE0108960E94CB0B882359F00E94B00431
S1130C9008C0CE0108960E949F00CE0141960E9492
S1130CA09F000F900FBE81E0DF91CF9108950F93C5
S1130CB01F93CF93DF93082F162F6623C1F0869FCF
S1130CC0C00111244F960E946900EC01009741F481
S1130CD015C00B8F1C8F61E0CE010E941A060EC056
S1130CE04F9699838883F5CFD983C883F2CF8FE158
S1130CF090E00E946900EC01892BB1F7CE01DF91ED
S1130D00CF911F910F9108959F92AF92BF92CF926E
S1130D10DF92EF92FF920F931F93CF93DF9300D054
S1130D2000D01F92CDB7DEB78C016B015D834C837D
S1130D30A22EB12C992493947C0188E0E80EF11C36
S1130D400FB6F8940F92F801328D938D391718F07D
S1130D50F2E0AF1219C04A2DB601C8010E9468051D
S1130D60F8019189992349F0C80141960E94CB0B5F
S1130D70882331F00E94B00403C081110E94B004A2
S1130D800F900FBE81E050C0EC81FD81EF2B21F468
S1130D900F900FBE80E048C0B11005C0CE0101968F
S1130DA00E94130CB92C0F900FBE0E9488090FB635
S1130DB0F8940F92F801858D8F3F09F4158EF80190
S1130DC0868D8F3F09F4168E0F900FBEBE016C5FA7
S1130DD07F4FCE0101960E941E0C81111FC00FB6D9
S1130DE0F8940F92F801928D0F900FBE838D981393
S1130DF00FC06C817D81C7010E94B80BC8010E949D
S1130E00CD050E94560A81119BCF0E94B00498CF51
S1130E10C8010E94CD050E94560A92CFC8010E94C3
S1130E20CD050E94560A80E00F900F900F900F900E
S1130E300F90DF91CF911F910F91FF90EF90DF9072
S1130E40CF90BF90AF909F9008958F929F92AF9252
S1130E50BF92CF92DF92EF92FF920F931F93CF93A3
S1130E60DF9300D000D01F92CDB7DEB78C015B01B9
S1130E705D834C83822EE12C992493946C0181E14F
S1130E80C80ED11C0FB6F8940F92F801F28CFF2013
S1130E9041F1C680D780B501C8010E94B305811015
S1130EA00FC0FA94F801F28E80858823B1F0C8014E
S1130EB008960E94CB0B882381F00E94B0040DC0D9
S1130EC0F801D782C6828189882339F0C801419606
S1130ED00E94CB0B81110E94B0040F900FBE81E0E1
S1130EE057C04C815D81452B21F40F900FBE80E0EB
S1130EF04FC0E11005C0CE0101960E94130CE92CED
S1130F000F900FBE0E9488090FB6F8940F92F80153
S1130F10858D8F3F09F4158EF801968D9F3F09F456
S1130F20168E0F900FBEBE016C5F7F4FCE010196EF
S1130F300E941E0C81111EC00FB6F8940F92F80186
S1130F40828D0F900FBE81110FC06C817D81C6010F
S1130F500E94B80BC8010E94CD050E94560A811157
S1130F6091CF0E94B0048ECFC8010E94CD050E948B
S1130F70560A88CFC8010E94CD050E94560A0FB6B2
S1130F80F8940F92F801828D0F900FBE81117ACFE1
S1130F900F900F900F900F900F90DF91CF911F91B2
S1130FA00F91FF90EF90DF90CF90BF90AF909F9004
S1130FB08F900895E0913C07F0913D078081811165
S1130FC007C08FEF9FEF9093140780931307089542
S1130FD0E0913C07F0913D070580F681E02D068005
S1130FE0F781E02D828193819093140780931307F6
S1130FF00895FF920F931F93CF93DF93EC01F62E86
S113100000911B0710911C0780917407909175073C
S113101002960E940301CF3F8FEFD80769F4FF20A7
S113102059F060917407709175076E5F7F4F8EE180
S113103097E00E94B1002FC0C00FD11FE091740748
S1131040F0917507D383C283C017D10768F4609108
S113105074077091750780913A0790913B076E5F12
S11310607F4F0E94D20017C060917407709175077A
S113107080913C0790913D076E5F7F4F0E94D200A4
S11310808091130790911407C817D90720F4D093BF
S11310901407C0931307DF91CF911F910F91FF9015
S11310A008954F925F926F927F928F929F92AF9228
S11310B0BF92CF92DF92EF92FF920F93CF93DF9381
S11310C04C016B015A012901CA010E9469003C01CB
S11310D0892B09F4E2C086E290E00E946900EC01E9
S11310E0892B71F0788E6F8A81E0A81AB1086A0C96
S11310F07B1CD6018C91898F8C91811105C018C0FD
S1131100C3010E949E00C9C0AE01465E5F4FF60156
S11311103196B8E0CB0ED11CCF012191DA012D9389
S1131120AD01DC018C91882319F0EC15FD05A1F7C4
S113113018A2043008F003E00E8B6E01B2E0CB0E6F
S1131140D11CC6010E94AD00CE010C960E94AD00D8
S1131150D987C88784E090E0801B91099D878C879C
S1131160DB8BCA8B19A21AA21BA21CA21DA2A2016C
S1131170B401C3010E940A0499838883E114F10431
S113118019F0F701D183C0830FB6F8940F928091C0
S11311901D078F5F80931D078091740790917507D9
S11311A0892BD1F5D0937507C093740780911D07DF
S11311B0813009F041C080E597E00E949F0089E5F5
S11311C097E00E949F0082E697E00E949F008BE6D2
S11311D097E00E949F0087E497E00E949F008EE3BF
S11311E097E00E949F0081E397E00E949F0088E2BD
S11311F097E00E949F008EE197E00E949F0087E4A1
S113120097E090933D0780933C078EE397E090939B
S11312103B0780933A0710C08091190781110CC0D5
S1131220E0917407F091750796898E89891720F0EB
S1131230D0937507C0937407809115078F5F8093CF
S113124015078E8990911A07981710F480931A073E
S113125090E09C01220F331F220F331F220F331FF4
S1131260820F931FB601805B984F0E94B1000F90CC
S11312700FBE80911907882361F0E0917407F09103
S1131280750796898E89981730F40E94B00481E01E
S113129005C081E003C081E001C08FEFDF91CF91F1
S11312A00F91FF90EF90DF90CF90BF90AF909F9001
S11312B08F907F906F905F904F900895EF92FF9280
S11312C00F930F2EF1E1EF2EF7E0FF2EF02D00E04B
S11312D020E030E045E550E068E271E085E19BE024
S11312E00E945108813081F4F8948FEF9FEF90931E
S11312F014078093130781E08093190710921C0749
S113130010921B070E9476040F91FF90EF900895AE
S1131310809110078F5F8093100708950FB6F8949B
S11313200F9280911B0790911C070F900FBE089598
S113133080911D070895CF92DF92EF92FF920F9351
S11313401F93CF93DF9380911007811199C0E09090
S11313501B07F0901C078FEFE81AF80AF0921C079D
S1131360E0921B07E114F104B9F480913C079091D9
S11313703D0720913A0730913B0730933D07209376
S11313803C0790933B0780933A07809116078F5F41
S1131390809316070E94DA0780911307909114072F
S11313A0E816F90610F4D12C53C0D12CCC24C394E4
S11313B0E0913C07F0913D079081911107C08FEFB8
S11313C09FEF909314078093130742C0E0913C076A
S11313D0F0913D070580F681E02DC681D7812A81F1
S11313E03B81E216F30628F4309314072093130785
S11313F02FC08E010E5F1F4FC8010E9403018C890C
S11314009D89892B21F0CE010C960E9403012E891F
S113141080911A07821710F420931A0730E0C9014B
S1131420880F991F880F991F880F991F820F931F88
S1131430B801805B984F0E94B100E0917407F0916D
S113144075079E898689981708F4B2CFDC2CB0CF33
S1131450E0917407F0917507868990E0FC01EE0F26
S1131460FF1FEE0FFF1FEE0FFF1F8E0F9F1FFC01CC
S1131470E05BF84F8081823048F0DD24D39406C0CD
S1131480809118078F5F80931807D12C80911707DC
S1131490882311F0DD24D3948D2DDF91CF911F91FA
S11314A00F91FF90EF90DF90CF900895DF92EF922D
S11314B0FF920F931F93CF93DF930FB6F8940F927D
S11314C0809110078150809310078091100781113B
S11314D05FC080911D07811133C05DC0D70115968F
S11314E0ED91FC911697C681D781CE010C960E948E
S11314F003018E010E5F1F4FC8010E9403012E8954
S113150080911A07821710F420931A0730E0C9015A
S1131510880F991F880F991F880F991F820F931F97
S1131520B801805B984F0E94B100E0917407F0917C
S113153075079E898689981768F0D09217070AC0A4
S1131540C0E0D0E00F2EF1E3EF2EF7E0FF2EF02DF8
S1131550DD24D394F70180818111C0CFCD2B11F00C
S11315600E94DA07C0911807CC2351F0D1E00E9401
S11315709B098111D0931707C150C9F7109218071E
S113158080911707882331F00E94B00481E003C0E2
S113159080E001C080E00F900FBEDF91CF911F91DA
S11315A00F91FF90EF90DF9008950F931F93CF93C7
S11315B0DF938C01EB010E94880980911B079091B5
S11315C01C07F801408151819A012C0F3D1F84179B
S11315D0950748F424173507F8F4318320838217DC
S11315E0930778F407C02417350790F08217930700
S11315F078F012C060E0A901481B590BCA010E948F
S1131600F9070E94560A81110BC00E94B00408C059
S1131610F80131832083EECFF80131832083F1CFA9
S1131620DF91CF911F910F91089508E217E00F2EDB
S1131630F0E5EF2EF7E0FF2EF02D29C00E94880977
S1131640D801CC910E94560ACC2309F10FB6F89424
S11316500F92D8011596ED91FC911697C681D7810A
S1131660CE0102960E94030180911D078150809350
S11316701D07809127078150809327070F900FBE85
S11316808F89988D0E949E00CE010E949E008091B9
S113169027078111D3CFF70180818230C0F30E94E4
S11316A0B004F5CF80911007882321F081E0809366
S11316B0170708951092170720911A07822F90E0B8
S11316C0FC01EE0FFF1FEE0FFF1FEE0FFF1FE80FD1
S11316D0F91FE05BF84F3081311111C02150822F86
S11316E090E0FC01EE0FFF1FEE0FFF1FEE0FFF1F38
S11316F0E80FF91FE05BF84F3081332379F3AC0135
S1131700440F551F440F551F440F551F480F591FB1
S1131710DA01A05BB84F1196ED91FC91129702800B
S1131720F381E02D1296FC93EE9311974D5A584F86
S1131730E417F50729F442815381FD015283418363
S1131740FC01EE0FFF1FEE0FFF1FEE0FFF1F8E0FAA
S11317509F1FFC01E05BF84F0180F281E02D868140
S11317609781909375078093740720931A070895BF
S1131770CF93DF93EB012091740730917507B90182
S1131780645F7F4F0E94D20061E0CE010E94F9079E
S1131790DF91CF9108950F931F93CF93DF93DC01D3
S11317A01596ED91FC911697C681D7818E01045F41
S11317B01F4FC8010E9403018091100781111CC0B2
S11317C00A501109C8010E9403012E8980911A0749
S11317D0821710F420931A0730E0C901880F991F6B
S11317E0880F991F880F991F820F931FB801805B80
S11317F0984F0E94B10005C0B80181E397E00E94B0
S1131800B100E0917407F09175079E898689891764
S113181020F481E08093170701C080E0DF91CF912D
S11318201F910F91089520911607FC0120832091A8
S11318301B0730911C073283218308950FB6F89457
S11318400F9240911B0750911C07DB012D913C9195
S11318502F3FBFEF3B0719F1E0911607DC01FC9124
S1131860FE1739F01196ED91FC9112974E175F0710
S1131870C0F4DC011196ED91FC911297DA01AE1BD4
S1131880BF0BA217B30778F4DB01E41BF50B2E0F93
S11318903F1F2D933C930E94130C80E005C080E011
S11318A003C081E001C081E00F900FBE089581E084
S11318B0809317070895FB01DC0102C001900D928B
S11318C041505040D8F70895BB274A3031F499234A
S11318D022F4BDE2909581959F4F0C94700CBB2728
S11318E0FB015527AA27880F991FAA1FA41710F0D8
S11318F0A41B83955051B9F7A05DAA3308F0A95DE4
S1131900A193009779F7B111B1931192CB010C9483
S1131910890CDC01FC01672F71917723E1F7329781
S113192004C07C916D9370836291AE17BF07C8F3B6
S10919300895F894FFCFB6
S11319360706050407060504200042543A005453DA
S11319464B533A00427574746F6E004C4544004C18
S11119564344004C4544310049444C450000D4
S9030000FC
