S0130000626C696E6B5F615F6C65642E73726563AD
S113000045C0000060C000005EC000005CC000008D
S11300105AC0000058C0000056C0000054C0000080
S113002052C0000050C000004EC000004CC0000090
S11300308DC2000048C0000046C0000044C000005B
S113004042C0000040C000003EC000003CC00000B0
S11300503AC0000038C0000036C0000034C00000C0
S113006032C0000030C000002EC000002CC00000D0
S11300702AC0000028C0000026C0000024C00000E0
S113008022C0000020C000001EC0000011241FBEBA
S1130090CFEFD0E1DEBFCDBF11E0A0E0B1E0E4EBF3
S11300A0FCE000E00BBF02C007900D92AC30B1073A
S11300B0D9F727E0ACE0B1E001C01D92A235B20748
S11300C0E1F7D6D0F5C59CCFCF93DF93EC01D7D31E
S11300D080910C0190910D01892B31F481E191E023
S11300E090930D0180930C0120910E0130910F012A
S11300F0CE01820F931F8B3D45E0940770F42817BF
S1130100390770F4C0910C01D0910D01C20FD31FB7
S113011090930F0180930E0105C0C0E0D0E002C0AF
S1130120C0E0D0E073D4CE01DF91CF91089508955B
S1130130FC010396928381832FEF3FEF3483238363
S1130140968385839087878310820895FC011186A6
S113015010860895CF93DF939C01FB01DC01119677
S1130160CD91DC911297D383C2838C819D81958339
S113017084838C819D81DC0113967C936E9312970A
S11301807D836C8331872087F90180818F5F808331
S1130190DF91CF910895CF93DF93EB01488159818B
S11301A04F3F2FEF520721F4FC01A781B0850DC00A
S11301B0DC01139601C0DF011296ED91FC911397B7
S11301C02081318142175307B0F71296ED91FC91CB
S11301D01397FB83EA83D583C483BD83AC831396CF
S11301E0DC93CE93129799878887FC0120812F5F37
S11301F02083DF91CF910895CF93DF93FC01A085F5
S1130200B185C281D381848195819D838C83C4818E
S1130210D581828193819B838A831196CD91DC91D0
S11302201297CE17DF0731F48C819D8112969C932F
S11302308E931197118610868C9181508C93DF9147
S1130240CF910895CF93DF9300D0CDB7DEB71DD300
S11302509A83898305E610E0FF24F39468EC70E048
S1130260CE0101964CD4F80180818F258083F6CF8E
S1130270EF92FF920F9381E0809364008093650076
S1130280E12CF12C01E020E030E045E550E060E0B5
S113029071E082E291E0CFD1CAD280E090E00F9188
S11302A0FF90EF90089531E1FC013083319722E211
S11302B020833197A3E3A0833197608331977083C0
S11302C031971082319760E86083319710823197BB
S11302D062E06083319763E06083319764E0608318
S11302E0319765E06083319766E06083319767E01A
S11302F06083319768E06083319769E06083319768
S113030060E1608331973083319732E130833197F4
S113031033E13083319734E13083319735E13083F1
S1130320319736E13083319737E13083319738E1C3
S11303303083319739E13083319730E2308331971C
S113034031E2308331972083319723E22083319740
S1130350408331975083319726E22083319727E2F7
S11303602083319728E22083319729E22083319733
S113037020E32083319721E32083869708951BBCD3
S113038087ED8ABD8BE08EBD87B7806187BFA09162
S11303905007B0915107CD91CDBFDD91DEBFFF91E4
S11303A0EF91DF91CF91BF91AF919F918F917F9109
S11303B06F915F914F913F912F911F910F91FF90FA
S11303C0EF90DF90CF90BF90AF909F908F907F90F1
S11303D06F905F904F903F902F901F900F900FBEA3
S11303E00F90089581E008950F920FB6F8940F923C
S11303F01F9211242F923F924F925F926F927F929D
S11304008F929F92AF92BF92CF92DF92EF92FF9220
S11304100F931F932F933F934F935F936F937F9308
S11304208F939F93AF93BF93CF93DF93EF93FF93F8
S1130430A0915007B09151070DB60D920EB60D92D2
S1130440D1D3A0915007B0915107CD91CDBFDD918B
S1130450DEBFFF91EF91DF91CF91BF91AF919F915B
S11304608F917F916F915F914F913F912F911F9148
S11304700F91FF90EF90DF90CF90BF90AF909F903F
S11304808F907F906F905F904F903F902F901F9030
S11304900F900FBE0F9008950F920FB6F8940F921D
S11304A01F9211242F923F924F925F926F927F92EC
S11304B08F929F92AF92BF92CF92DF92EF92FF9270
S11304C00F931F932F933F934F935F936F937F9358
S11304D08F939F93AF93BF93CF93DF93EF93FF9348
S11304E0A0915007B09151070DB60D920EB60D9222
S11304F0D6D1811177D3A0915007B0915107CD91F6
S1130500CDBFDD91DEBFFF91EF91DF91CF91BF9120
S1130510AF919F918F917F916F915F914F913F9197
S11305202F911F910F91FF90EF90DF90CF90BF908C
S1130530AF909F908F907F906F905F904F903F907F
S11305402F901F900F900FBE0F900895A5DF189560
S1130550E0911807F09119078081811107C08FEF8E
S11305609FEF9093F0068093EF060895E0911807AB
S1130570F09119070580F681E02D0680F781E02DC2
S1130580828193819093F0068093EF060895FF9201
S11305900F931F93CF93DF93EC01F62E0091F70690
S11305A01091F8068091500790915107029624DE2D
S11305B0CF3F8FEFD80761F4FF2051F060915007CF
S11305C0709151076E5F7F4F8AEF96E0C3DD2DC0B7
S11305D0C00FD11FE0915007F0915107D383C2831C
S11305E0C017D10760F46091500770915107809152
S11305F01607909117076E5F7F4FCDDD16C060918F
S113060050077091510780911807909119076E5FF8
S11306107F4FC1DD8091EF069091F006C817D9078E
S113062020F4D093F006C093EF06DF91CF911F9191
S11306300F91FF9008954F925F926F927F928F92E5
S11306409F92AF92BF92CF92DF92EF92FF920F935D
S1130650CF93DF934C016B015A012901CA0134DDA8
S11306603C01892B09F4D2C086E290E02DDDEC0137
S1130670892B71F0788E6F8A81E0A81AB1086A0C10
S11306807B1CD6018C91898F8C91811104C017C079
S1130690C3014DDDBBC0AE01465E5F4FF60131962E
S11306A0B8E0CB0ED11CCF012191DA012D93AD011D
S11306B0DC018C91882319F0EC15FD05A1F718A233
S11306C0043008F003E00E8B6E01B2E0CB0ED11CB7
S11306D0C6013CDDCE010C9639DDD987C88784E09C
S11306E090E0801B91099D878C87DB8BCA8B19A2B4
S11306F01AA21BA21CA21DA2A201B401C301D3DD34
S113070099838883E114F10419F0F701D183C0833C
S11307100FB6F8940F928091F9068F5F8093F906D3
S11307208091500790915107892B89F5D0935107F7
S1130730C09350078091F906813009F038C08CE2EB
S113074097E0F6DC85E397E0F3DC8EE397E0F0DCFA
S113075087E497E0EDDC83E297E0EADC8AE197E066
S1130760E7DC8DE097E0E4DC84E097E0E1DC8AEF0D
S113077096E0DEDC83E297E09093190780931807F4
S11307808AE197E0909317078093160710C0809131
S1130790F50681110CC0E0915007F091510796893C
S11307A08E89891720F0D0935107C0935007809108
S11307B0F1068F5F8093F1068E899091F606981763
S11307C010F48093F60690E09C01220F331F220F51
S11307D0331F220F331F820F931FB601845D984F7E
S11307E0B9DC0F900FBE8091F506882359F0E09193
S11307F05007F091510796898E89981728F4F4DDF3
S113080081E005C081E003C081E001C08FEFDF918A
S1130810CF910F91FF90EF90DF90CF90BF90AF906A
S11308209F908F907F906F905F904F900895EF927C
S1130830FF920F930F2EFDEEEF2EF6E0FF2EF02D1C
S113084000E020E030E045E550E066E071E08BEB4D
S113085095E0F1DE813079F4F8948FEF9FEF909377
S1130860F0068093EF0681E08093F5061092F80677
S11308701092F70684DD0F91FF90EF900895809118
S1130880EC068F5F8093EC0608950FB6F8940F92F0
S11308908091F7069091F8060F900FBE0895CF92BD
S11308A0DF92EF92FF920F931F93CF93DF93809188
S11308B0EC06811195C0E090F706F090F8068FEFF2
S11308C0E81AF80AF092F806E092F706E114F10447
S11308D0B1F480911807909119072091160730916F
S11308E017073093190720931807909317078093DD
S11308F016078091F2068F5F8093F20629DE8091BD
S1130900EF069091F006E816F90610F4D12C50C0C9
S1130910D12CCC24C394E0911807F091190790814D
S1130920911107C08FEF9FEF9093F0068093EF062D
S11309303FC0E0911807F09119070580F681E02D7A
S1130940C681D7812A813B81E216F30628F43093CD
S1130950F0062093EF062CC08E010E5F1F4FC801D6
S11309604BDC8C899D89892B19F0CE010C9644DCD3
S11309702E898091F606821710F42093F60630E053
S1130980C901880F991F880F991F880F991F820F1B
S1130990931FB801845D984FDDDBE0915007F0911F
S11309A051079E898689981708F4B5CFDC2CB3CFFC
S11309B0E0915007F0915107868990E0FC01EE0F19
S11309C0FF1FEE0FFF1FEE0FFF1F8E0F9F1FFC0177
S11309D0E45DF84F8081823048F0DD24D39406C072
S11309E08091F4068F5F8093F406D12C8091F306F6
S11309F0882311F0DD24D3948D2DDF91CF911F91A5
S1130A000F91FF90EF90DF90CF900895DF92EF92D7
S1130A10FF920F931F93CF93DF930FB6F8940F9227
S1130A208091EC0681508093EC068091EC06811154
S1130A3059C08091F906811130C057C0D70115966D
S1130A40ED91FC911697C681D781CE010C96D4DB2B
S1130A508E010E5F1F4FC801CFDB2E898091F606F1
S1130A60821710F42093F60630E0C901880F991F0D
S1130A70880F991F880F991F820F931FB801845DF7
S1130A80984F68DBE0915007F09151079E89868961
S1130A90981768F0D092F3060AC0C0E0D0E00F2E99
S1130AA0FDE0EF2EF7E0FF2EF02DDD24D394F701C7
S1130AB080818111C3CFCD2B09F04ADDC091F406AA
S1130AC0CC2349F0D1E0EBDE8111D093F306C15081
S1130AD0D1F71092F4068091F306882329F084DC80
S1130AE081E003C080E001C080E00F900FBEDF9181
S1130AF0CF911F910F91FF90EF90DF9008950F9386
S1130B001F93CF93DF938C01EB01B9DE8091F7063D
S1130B109091F806F801408151819A012C0F3D1FF4
S1130B208417950748F424173507E0F431832083AC
S1130B308217930770F407C02417350778F08217DB
S1130B40930760F00FC060E0A901481B590BCA016C
S1130B501EDD5CDF81110AC047DC08C0F801318367
S1130B602083F1CFF80131832083F3CFDF91CF913C
S1130B701F910F91089504E017E00F2EFCE2EF2E71
S1130B80F7E0FF2EF02D24C07ADED801CC913EDFB1
S1130B90CC23F1F00FB6F8940F92D8011596ED918D
S1130BA0FC911697C681D781CE01029625DB8091F0
S1130BB0F90681508093F906809103078150809350
S1130BC003070F900FBE8F89988DB1DACE01AFDA8B
S1130BD0809103078111D8CFF70180818230C0F35F
S1130BE003DCF6CF8091EC06882321F081E080932A
S1130BF0F30608951092F3062091F606822F90E0F2
S1130C00FC01EE0FFF1FEE0FFF1FEE0FFF1FE80F9B
S1130C10F91FE45DF84F3081311111C02150822F4A
S1130C2090E0FC01EE0FFF1FEE0FFF1FEE0FFF1F02
S1130C30E80FF91FE45DF84F3081332379F3AC01F9
S1130C40440F551F440F551F440F551F480F591F7C
S1130C50DA01A45DB84F1196ED91FC9112970280D0
S1130C60F381E02D1296FC93EE931197415D584F5A
S1130C70E417F50729F442815381FD01528341832E
S1130C80FC01EE0FFF1FEE0FFF1FEE0FFF1F8E0F75
S1130C909F1FFC01E45DF84F0180F281E02D868105
S1130CA0978190935107809350072093F6060895F7
S1070CB0F894FFCFE2
S10F0CB4426C696E6B0049444C45000022
S9030000FC
