:100000000C944A000C9467000C9467000C946700F1
:100010000C9467000C9467000C9467000C946700C4
:100020000C9467000C9467000C9467000C946700B4
:100030000C94B3020C9467000C9467000C94670056
:100040000C9467000C9467000C9467000C94670094
:100050000C9467000C9467000C9467000C94670084
:100060000C9467000C9467000C9467000C94670074
:100070000C9467000C9467000C9467000C94670064
:100080000C9467000C9467000C9467000C94670054
:100090000C94670011241FBECFEFD8E0DEBFCDBFA8
:1000A00011E0A0E0B1E0E6E2FDE002C005900D92B3
:1000B000AC30B107D9F727E0ACE0B1E001C01D9248
:1000C000A235B207E1F70E943D010C9491060C9411
:1000D0000000CF93DF93EC010E94640480910C0137
:1000E00090910D01892B31F481E191E090930D0104
:1000F00080930C0120910E0130910F01CE01820FEF
:10010000931F8B3D45E0940770F42817390770F46E
:10011000C0910C01D0910D01C20FD31F90930F011C
:1001200080930E0105C0C0E0D0E002C0C0E0D0E086
:100130000E942F05CE01DF91CF9108950895FC0113
:100140000396928381832FEF3FEF3483238396833B
:1001500085839087878310820895FC01118610861D
:100160000895CF93DF939C01FB01DC011196CD91A3
:10017000DC911297D383C2838C819D819583848384
:100180008C819D81DC0113967C936E9312977D8305
:100190006C8331872087F90180818F5F8083DF91B5
:1001A000CF910895CF93DF93EB01488159814F3F61
:1001B0002FEF520721F4FC01A781B0850DC0DC01AF
:1001C000139601C0DF011296ED91FC9113972081E7
:1001D000318142175307B0F71296ED91FC911397B6
:1001E000FB83EA83D583C483BD83AC831396DC93FE
:1001F000CE93129799878887FC0120812F5F2083F7
:10020000DF91CF910895CF93DF93FC01A085B18555
:10021000C281D381848195819D838C83C481D58162
:10022000828193819B838A831196CD91DC91129771
:10023000CE17DF0731F48C819D8112969C938E93AB
:100240001197118610868C9181508C93DF91CF91FC
:100250000895CF93DF9300D0CDB7DEB70E946A0434
:100260009A83898311E064EF71E0CE0101960E94C8
:10027000AE0584B3812784BBF6CFEF92FF920F9334
:1002800081E083BB84BBE12CF12C01E020E030E075
:1002900045E550E060E071E089E291E00E942D03C5
:1002A0000E943A0480E090E00F91FF90EF90089553
:1002B00031E1FC013083319722E220833197A3E3BF
:1002C000A083319760833197708331971082319783
:1002D00060E8608331971082319762E060833197E4
:1002E00063E06083319764E06083319765E0608309
:1002F000319766E06083319767E06083319768E00B
:100300006083319769E06083319760E16083319762
:100310003083319732E13083319733E13083319745
:1003200034E13083319735E13083319736E13083E2
:10033000319737E13083319738E13083319739E1B4
:100340003083319730E23083319731E23083319717
:100350002083319723E22083319740833197508364
:10036000319726E22083319727E22083319728E2D4
:100370002083319729E22083319720E3208331972E
:1003800021E32083869708951092890089EF809356
:1003900088008BE080938100EFE6F0E0808182E0CE
:1003A0008083A0915007B0915107CD91CDBFDD91D1
:1003B000DEBFFF91EF91DF91CF91BF91AF919F9100
:1003C0008F917F916F915F914F913F912F911F91ED
:1003D0000F91FF90EF90DF90CF90BF90AF909F90E4
:1003E0008F907F906F905F904F903F902F901F90D5
:1003F0000F900FBE0F90089581E008950F920FB6F1
:10040000F8940F921F9211242F923F924F925F9275
:100410006F927F928F929F92AF92BF92CF92DF9214
:10042000EF92FF920F931F932F933F934F935F93FE
:100430006F937F938F939F93AF93BF93CF93DF93EC
:10044000EF93FF93A0915007B09151070DB60D9215
:100450000EB60D920E942B06A0915007B091510745
:10046000CD91CDBFDD91DEBFFF91EF91DF91CF91B7
:10047000BF91AF919F918F917F916F915F914F91BC
:100480003F912F911F910F91FF90EF90DF90CF90B0
:10049000BF90AF909F908F907F906F905F904F90A4
:1004A0003F902F901F900F900FBE0F9008950F92C6
:1004B0000FB6F8940F921F9211242F923F924F92F1
:1004C0005F926F927F928F929F92AF92BF92CF92E4
:1004D000DF92EF92FF920F931F932F933F934F93CF
:1004E0005F936F937F938F939F93AF93BF93CF93BC
:1004F000DF93EF93FF93A0915007B09151070DB692
:100500000D920EB60D920E94740481110E942B066A
:10051000A0915007B0915107CD91CDBFDD91DEBFC5
:10052000FF91EF91DF91CF91BF91AF919F918F910B
:100530007F916F915F914F913F912F911F910F91FB
:10054000FF90EF90DF90CF90BF90AF909F908F90F3
:100550007F906F905F904F903F902F901F900F90E3
:100560000FBE0F9008950E9457021895E09118074A
:10057000F09119078081811107C08FEF9FEF909351
:10058000F0068093EF060895E0911807F09119079F
:100590000580F681E02D0680F781E02D8281938130
:1005A0009093F0068093EF060895FF920F931F93A8
:1005B000CF93DF93EC01F62E0091F7061091F80629
:1005C000809150079091510702960E940301CF3FFE
:1005D0008FEFD80769F4FF2059F0609150077091B0
:1005E00051076E5F7F4F8AEF96E00E94B1002FC0E7
:1005F000C00FD11FE0915007F0915107D383C28300
:10060000C017D10768F4609150077091510780912D
:100610001607909117076E5F7F4F0E94D20017C098
:1006200060915007709151078091180790911907B8
:100630006E5F7F4F0E94D2008091EF069091F0068E
:10064000C817D90720F4D093F006C093EF06DF91C6
:10065000CF911F910F91FF9008954F925F926F92EB
:100660007F928F929F92AF92BF92CF92DF92EF9242
:10067000FF920F93CF93DF934C016B015A01290135
:10068000CA010E9469003C01892B09F4E2C086E29C
:1006900090E00E946900EC01892B71F0788E6F8ADE
:1006A00081E0A81AB1086A0C7B1CD6018C91898F55
:1006B0008C91811105C018C0C3010E949E00C9C061
:1006C000AE01465E5F4FF6013196B8E0CB0ED11C0D
:1006D000CF012191DA012D93AD01DC018C918823AA
:1006E00019F0EC15FD05A1F718A2043008F003E09D
:1006F0000E8B6E01B2E0CB0ED11CC6010E94AD0084
:10070000CE010C960E94AD00D987C88784E090E0A6
:10071000801B91099D878C87DB8BCA8B19A21AA23B
:100720001BA21CA21DA2A201B401C3010E94580178
:1007300099838883E114F10419F0F701D183C08310
:100740000FB6F8940F928091F9068F5F8093F906A7
:100750008091500790915107892BD1F5D093510783
:10076000C09350078091F906813009F041C08CE2B6
:1007700097E00E949F0085E397E00E949F008EE330
:1007800097E00E949F0087E497E00E949F0083E229
:1007900097E00E949F008AE197E00E949F008DE011
:1007A00097E00E949F0084E097E00E949F008AEFFC
:1007B00096E00E949F0083E297E090931907809350
:1007C00018078AE197E0909317078093160710C0E7
:1007D0008091F50681110CC0E0915007F09151070E
:1007E00096898E89891720F0D0935107C0935007BE
:1007F0008091F1068F5F8093F1068E899091F606C5
:10080000981710F48093F60690E09C01220F331F96
:10081000220F331F220F331F820F931FB601845DF7
:10082000984F0E94B1000F900FBE8091F50688236B
:1008300061F0E0915007F091510796898E899817E1
:1008400030F40E94FE0181E005C081E003C081E038
:1008500001C08FEFDF91CF910F91FF90EF90DF906C
:10086000CF90BF90AF909F908F907F906F905F9050
:100870004F900895EF92FF920F930F2EFDEEEF2E03
:10088000F6E0FF2EF02D00E020E030E045E550E0FE
:1008900066E071E08EEE95E00E942D03813081F4D8
:1008A000F8948FEF9FEF9093F0068093EF0681E02E
:1008B0008093F5061092F8061092F7060E94C40184
:1008C0000F91FF90EF9008958091EC068F5F8093D9
:1008D000EC0608950FB6F8940F928091F706909168
:1008E000F8060F900FBE0895CF92DF92EF92FF921D
:1008F0000F931F93CF93DF938091EC06811199C0E2
:10090000E090F706F090F8068FEFE81AF80AF092F8
:10091000F806E092F706E114F104B9F480911807A3
:1009200090911907209116073091170730931907F6
:100930002093180790931707809316078091F2066B
:100940008F5F8093F2060E94B6028091EF0690912D
:10095000F006E816F90610F4D12C53C0D12CCC24A3
:10096000C394E0911807F09119079081911107C085
:100970008FEF9FEF9093F0068093EF0642C0E091D7
:100980001807F09119070580F681E02DC681D781FF
:100990002A813B81E216F30628F43093F006209377
:1009A000EF062FC08E010E5F1F4FC8010E9403018A
:1009B0008C899D89892B21F0CE010C960E94030120
:1009C0002E898091F606821710F42093F60630E007
:1009D000C901880F991F880F991F880F991F820FCF
:1009E000931FB801845D984F0E94B100E0915007B9
:1009F000F09151079E898689981708F4B2CFDC2CB4
:100A0000B0CFE0915007F0915107868990E0FC014A
:100A1000EE0FFF1FEE0FFF1FEE0FFF1F8E0F9F1F2A
:100A2000FC01E45DF84F8081823048F0DD24D394EE
:100A300006C08091F4068F5F8093F406D12C8091DC
:100A4000F306882311F0DD24D3948D2DDF91CF910F
:100A50001F910F91FF90EF90DF90CF900895DF925C
:100A6000EF92FF920F931F93CF93DF930FB6F894FB
:100A70000F928091EC0681508093EC068091EC06F9
:100A800081115FC08091F906811133C05DC0D7012B
:100A90001596ED91FC911697C681D781CE010C96E3
:100AA0000E9403018E010E5F1F4FC8010E940301C7
:100AB0002E898091F606821710F42093F60630E016
:100AC000C901880F991F880F991F880F991F820FDE
:100AD000931FB801845D984F0E94B100E0915007C8
:100AE000F09151079E898689981768F0D092F30695
:100AF0000AC0C0E0D0E00F2EFDE0EF2EF7E0FF2EA1
:100B0000F02DDD24D394F70180818111C0CFCD2B4E
:100B100011F00E94B602C091F406CC2351F0D1E04E
:100B20000E9474048111D093F306C150C9F710924A
:100B3000F4068091F306882331F00E94FE0181E0E3
:100B400003C080E001C080E00F900FBEDF91CF9125
:100B50001F910F91FF90EF90DF9008950F931F93D7
:100B6000CF93DF938C01EB010E9464048091F70620
:100B70009091F806F801408151819A012C0F3D1F98
:100B80008417950748F424173507F8F43183208338
:100B90008217930778F407C02417350790F082175F
:100BA000930778F012C060E0A901481B590BCA01F5
:100BB0000E94D5020E942F0581110BC00E94FE01E8
:100BC00008C0F80131832083EECFF8013183208300
:100BD000F1CFDF91CF911F910F91089504E017E0BD
:100BE0000F2EFCE2EF2EF7E0FF2EF02D29C00E9421
:100BF0006404D801CC910E942F05CC2309F10FB6D3
:100C0000F8940F92D8011596ED91FC911697C68134
:100C1000D781CE0102960E9403018091F90681508E
:100C20008093F906809103078150809303070F900A
:100C30000FBE8F89988D0E949E00CE010E949E005B
:100C4000809103078111D3CFF70180818230C0F3F7
:100C50000E94FE01F5CF8091EC06882321F081E00F
:100C60008093F30608951092F3062091F606822FE2
:100C700090E0FC01EE0FFF1FEE0FFF1FEE0FFF1FB6
:100C8000E80FF91FE45DF84F3081311111C0215098
:100C9000822F90E0FC01EE0FFF1FEE0FFF1FEE0F03
:100CA000FF1FE80FF91FE45DF84F3081332379F31C
:100CB000AC01440F551F440F551F440F551F480FDB
:100CC000591FDA01A45DB84F1196ED91FC9112976E
:100CD0000280F381E02D1296FC93EE931197415D13
:100CE000584FE417F50729F442815381FD015283DF
:100CF0004183FC01EE0FFF1FEE0FFF1FEE0FFF1FE2
:100D00008E0F9F1FFC01E45DF84F0180F281E02D02
:100D10008681978190935107809350072093F60620
:060D20000895F894FFCFD6
:0C0D2600426C696E6B0049444C450000B3
:00000001FF
